:08000000803102288731F42F42
:100E24001630210097000800F90079082400910089
:100E340008007A082000A1007908A00008007A08B8
:100E44002000A5007908A40008007A082000A30067
:100E54007908A2000800703021009900980122004E
:100E640096010800F9002000111E392F3A2F352F62
:100E7400790823009A0008004030240094000230CE
:100E840095001330920021000D12240095120800E1
:100E9400F9012000111E4F2F502F572F23009E1EA3
:100EA400542F552F572FF901F90A79080800873173
:100EB4003E27873187316927873187312D2787314D
:100EC40087311227873187319B2787310800220019
:100ED4008C018D01373021008C00EF308D00C8303B
:100EE40023008D001F308C0024008D018C01210013
:100EF4009517C03022009D0001309E000800FB00C1
:100F040022008D107B088731162787312000911D20
:100F14008C2F8D2F882F91117A08873116278731CE
:100F24002000911D962F972F922F911122008D143E
:100F34000800083023009F0090309D0024309E005C
:100F440067309B009C010030F9000030FA008731C3
:100F5400212787310030F9000030FA008731272734
:100F640087310030F9000030FA0087311B278731C0
:100F7400F801080087315927873121008D1022009C
:100F84008C118C130B30FD002630FC005E30890B75
:100F9400C92FFC0BC92FFD0BC92FFA01FA0A0F3018
:100FA4008731812787310B30FD002630FC005E300D
:100FB400890BDA2FFC0BDA2FFD0BDA2FFA010F3035
:100FC40087318127873187314A278731003A0319CE
:100FD400EC2FED2FC42F0030873134278731C42FF5
:100FE40080310228F001F101F201F301F401F5016D
:100FF400F601F701F80120008731BC2F0234403498
:04100400133400346D
:020000040001F9
:08000000FF3FFF3FFF3FFF3F00
:04000E00E43FFF3E8E
:10E00000FF0081008100FF00000000000000FF0011
:10E01000C200A10091008E004200890089007600B4
:10E020001F0010001000FF008F00890089007100A0
:10E030007E00890089007200090009000900FF00C4
:10E0400076008900890076004E00910091007E00E4
:10E0500000001800060018000000180060001800FA
:10E06000000000000000000000001800660018001A
:00000001FF
