:08000000803102288731F52F41
:100EF4001630210097000800F800780824009100BB
:100F04000800703021009900980122009601080021
:100F140040302400940002309500133092002100E8
:100F24000D1224009512080087318A2787318731F2
:100F3400A327873187318327873187317A27873100
:100F4400080022008C018D01373021008C00EF3025
:100F54008D00EC3023008D001F308C0024008D01A7
:100F64008C0121009517403022009D009E0108004D
:100F7400FA0022008D107A0887317E2787312000FD
:100F8400911DC52FC62FC12F9111790887317E2756
:100F940087312000911DCF2FD02FCB2F911122000C
:100FA4008D14080087319627873121008D10220087
:100FB4008C118C13F901F90A0F308731BA27873164
:100FC4000B30FC002630FB005E30890BE72FFB0B57
:100FD400E72FFC0BE72FF9010F308731BA27873150
:100FE400F22F80310228F001F101F201F301F40142
:100FF400F501F601F70120008731D42F0234403483
:04100400133400346D
:020000040001F9
:08000000FF3FFF3FFF3FFF3F00
:04000E00E43FFF3E8E
:10E00000FF0081008100FF00000000000000FF0011
:10E01000C200A10091008E004200890089007600B4
:10E020001F0010001000FF008F00890089007100A0
:10E030007E00890089007200090009000900FF00C4
:10E0400076008900890076004E00910091007E00E4
:10E0500000001800060018000000180060001800FA
:10E06000000000000000000000001800660018001A
:00000001FF
