:08000000803102288731F52F41
:100F64001630210097000800703021009900980184
:100F74002200960108008731D127873121008D1086
:100F8400C22F8031022840302400940002309500A2
:100F94001330920021000D122400951208008731AD
:100FA400C52787318731DE2787318731B6278731D7
:100FB4008731B2278731080022008C018D013F3030
:100FC40021008C00EF308D00EC3023008D001F30A9
:100FD4008C0024008D018C012100951740302200E3
:100FE4009D009E010800F001F101F201F301F401FA
:100FF400F501F601F70120008731BD2F023440349A
:04100400133400346D
:020000040001F9
:08000000FF3FFF3FFF3FFF3F00
:04000E00E43FFF3E8E
:10E00000FF0081008100FF00000000000000FF0011
:10E01000C200A10091008E004200890089007600B4
:10E020001F0010001000FF008F00890089007100A0
:10E030007E00890089007200090009000900FF00C4
:10E0400076008900890076004E00910091007E00E4
:10E0500000001800060018000000180060001800FA
:10E06000000000000000000000001800660018001A
:00000001FF
